{
  "_format": "hh-sol-artifact-1",
  "contractName": "TraitBasedNFT",
  "sourceName": "contracts/TraitBasedNFT.sol",
  "abi": [
    {
      "inputs": [],
      "stateMutability": "nonpayable",
      "type": "constructor"
    },
    {
      "inputs": [],
      "name": "NoContracts",
      "type": "error"
    },
    {
      "inputs": [],
      "name": "PreSaleNotActive",
      "type": "error"
    },
    {
      "inputs": [],
      "name": "PublicSaleNotActive",
      "type": "error"
    },
    {
      "anonymous": false,
      "inputs": [
        {
          "indexed": true,
          "internalType": "address",
          "name": "owner",
          "type": "address"
        },
        {
          "indexed": true,
          "internalType": "address",
          "name": "approved",
          "type": "address"
        },
        {
          "indexed": true,
          "internalType": "uint256",
          "name": "tokenId",
          "type": "uint256"
        }
      ],
      "name": "Approval",
      "type": "event"
    },
    {
      "anonymous": false,
      "inputs": [
        {
          "indexed": true,
          "internalType": "address",
          "name": "owner",
          "type": "address"
        },
        {
          "indexed": true,
          "internalType": "address",
          "name": "operator",
          "type": "address"
        },
        {
          "indexed": false,
          "internalType": "bool",
          "name": "approved",
          "type": "bool"
        }
      ],
      "name": "ApprovalForAll",
      "type": "event"
    },
    {
      "anonymous": false,
      "inputs": [
        {
          "indexed": true,
          "internalType": "address",
          "name": "previousOwner",
          "type": "address"
        },
        {
          "indexed": true,
          "internalType": "address",
          "name": "newOwner",
          "type": "address"
        }
      ],
      "name": "OwnershipTransferred",
      "type": "event"
    },
    {
      "anonymous": false,
      "inputs": [
        {
          "indexed": true,
          "internalType": "address",
          "name": "from",
          "type": "address"
        },
        {
          "indexed": true,
          "internalType": "address",
          "name": "to",
          "type": "address"
        },
        {
          "indexed": true,
          "internalType": "uint256",
          "name": "tokenId",
          "type": "uint256"
        }
      ],
      "name": "Transfer",
      "type": "event"
    },
    {
      "inputs": [
        {
          "internalType": "address",
          "name": "to",
          "type": "address"
        },
        {
          "internalType": "uint256",
          "name": "tokenId",
          "type": "uint256"
        }
      ],
      "name": "approve",
      "outputs": [],
      "stateMutability": "nonpayable",
      "type": "function"
    },
    {
      "inputs": [
        {
          "internalType": "address",
          "name": "owner",
          "type": "address"
        }
      ],
      "name": "balanceOf",
      "outputs": [
        {
          "internalType": "uint256",
          "name": "",
          "type": "uint256"
        }
      ],
      "stateMutability": "view",
      "type": "function"
    },
    {
      "inputs": [
        {
          "internalType": "uint256",
          "name": "tokenId",
          "type": "uint256"
        }
      ],
      "name": "getApproved",
      "outputs": [
        {
          "internalType": "address",
          "name": "",
          "type": "address"
        }
      ],
      "stateMutability": "view",
      "type": "function"
    },
    {
      "inputs": [
        {
          "internalType": "address",
          "name": "owner",
          "type": "address"
        },
        {
          "internalType": "address",
          "name": "operator",
          "type": "address"
        }
      ],
      "name": "isApprovedForAll",
      "outputs": [
        {
          "internalType": "bool",
          "name": "",
          "type": "bool"
        }
      ],
      "stateMutability": "view",
      "type": "function"
    },
    {
      "inputs": [
        {
          "internalType": "address",
          "name": "_user",
          "type": "address"
        },
        {
          "internalType": "bytes32[]",
          "name": "_proof",
          "type": "bytes32[]"
        }
      ],
      "name": "isValid",
      "outputs": [
        {
          "internalType": "bool",
          "name": "",
          "type": "bool"
        }
      ],
      "stateMutability": "view",
      "type": "function"
    },
    {
      "inputs": [],
      "name": "maxMint",
      "outputs": [
        {
          "internalType": "uint256",
          "name": "",
          "type": "uint256"
        }
      ],
      "stateMutability": "view",
      "type": "function"
    },
    {
      "inputs": [],
      "name": "maxSupply",
      "outputs": [
        {
          "internalType": "uint256",
          "name": "",
          "type": "uint256"
        }
      ],
      "stateMutability": "view",
      "type": "function"
    },
    {
      "inputs": [
        {
          "internalType": "uint256",
          "name": "_trait",
          "type": "uint256"
        },
        {
          "internalType": "uint256",
          "name": "_quantity",
          "type": "uint256"
        },
        {
          "internalType": "bytes32[]",
          "name": "_proof",
          "type": "bytes32[]"
        }
      ],
      "name": "mintWithTraitOG",
      "outputs": [],
      "stateMutability": "payable",
      "type": "function"
    },
    {
      "inputs": [
        {
          "internalType": "uint256",
          "name": "_trait",
          "type": "uint256"
        },
        {
          "internalType": "uint256",
          "name": "_quantity",
          "type": "uint256"
        },
        {
          "internalType": "bytes32[]",
          "name": "_proof",
          "type": "bytes32[]"
        }
      ],
      "name": "mintWithTraitPresale",
      "outputs": [],
      "stateMutability": "payable",
      "type": "function"
    },
    {
      "inputs": [
        {
          "internalType": "uint256",
          "name": "_trait",
          "type": "uint256"
        },
        {
          "internalType": "uint256",
          "name": "_quantity",
          "type": "uint256"
        }
      ],
      "name": "mintWithTraitPublic",
      "outputs": [],
      "stateMutability": "payable",
      "type": "function"
    },
    {
      "inputs": [
        {
          "internalType": "uint256",
          "name": "",
          "type": "uint256"
        }
      ],
      "name": "mintedTokens",
      "outputs": [
        {
          "internalType": "bool",
          "name": "",
          "type": "bool"
        }
      ],
      "stateMutability": "view",
      "type": "function"
    },
    {
      "inputs": [],
      "name": "name",
      "outputs": [
        {
          "internalType": "string",
          "name": "",
          "type": "string"
        }
      ],
      "stateMutability": "view",
      "type": "function"
    },
    {
      "inputs": [],
      "name": "owner",
      "outputs": [
        {
          "internalType": "address",
          "name": "",
          "type": "address"
        }
      ],
      "stateMutability": "view",
      "type": "function"
    },
    {
      "inputs": [
        {
          "internalType": "uint256",
          "name": "tokenId",
          "type": "uint256"
        }
      ],
      "name": "ownerOf",
      "outputs": [
        {
          "internalType": "address",
          "name": "",
          "type": "address"
        }
      ],
      "stateMutability": "view",
      "type": "function"
    },
    {
      "inputs": [],
      "name": "presaleActive",
      "outputs": [
        {
          "internalType": "bool",
          "name": "",
          "type": "bool"
        }
      ],
      "stateMutability": "view",
      "type": "function"
    },
    {
      "inputs": [],
      "name": "price_1",
      "outputs": [
        {
          "internalType": "uint256",
          "name": "",
          "type": "uint256"
        }
      ],
      "stateMutability": "view",
      "type": "function"
    },
    {
      "inputs": [],
      "name": "price_3",
      "outputs": [
        {
          "internalType": "uint256",
          "name": "",
          "type": "uint256"
        }
      ],
      "stateMutability": "view",
      "type": "function"
    },
    {
      "inputs": [],
      "name": "price_6",
      "outputs": [
        {
          "internalType": "uint256",
          "name": "",
          "type": "uint256"
        }
      ],
      "stateMutability": "view",
      "type": "function"
    },
    {
      "inputs": [],
      "name": "publicSaleActive",
      "outputs": [
        {
          "internalType": "bool",
          "name": "",
          "type": "bool"
        }
      ],
      "stateMutability": "view",
      "type": "function"
    },
    {
      "inputs": [],
      "name": "renounceOwnership",
      "outputs": [],
      "stateMutability": "nonpayable",
      "type": "function"
    },
    {
      "inputs": [
        {
          "internalType": "address",
          "name": "from",
          "type": "address"
        },
        {
          "internalType": "address",
          "name": "to",
          "type": "address"
        },
        {
          "internalType": "uint256",
          "name": "tokenId",
          "type": "uint256"
        }
      ],
      "name": "safeTransferFrom",
      "outputs": [],
      "stateMutability": "nonpayable",
      "type": "function"
    },
    {
      "inputs": [
        {
          "internalType": "address",
          "name": "from",
          "type": "address"
        },
        {
          "internalType": "address",
          "name": "to",
          "type": "address"
        },
        {
          "internalType": "uint256",
          "name": "tokenId",
          "type": "uint256"
        },
        {
          "internalType": "bytes",
          "name": "data",
          "type": "bytes"
        }
      ],
      "name": "safeTransferFrom",
      "outputs": [],
      "stateMutability": "nonpayable",
      "type": "function"
    },
    {
      "inputs": [
        {
          "internalType": "address",
          "name": "operator",
          "type": "address"
        },
        {
          "internalType": "bool",
          "name": "approved",
          "type": "bool"
        }
      ],
      "name": "setApprovalForAll",
      "outputs": [],
      "stateMutability": "nonpayable",
      "type": "function"
    },
    {
      "inputs": [
        {
          "internalType": "string",
          "name": "newBaseTokenURI",
          "type": "string"
        }
      ],
      "name": "setBaseTokenURI",
      "outputs": [],
      "stateMutability": "nonpayable",
      "type": "function"
    },
    {
      "inputs": [
        {
          "internalType": "bytes32",
          "name": "_presaleMerkleRoot",
          "type": "bytes32"
        }
      ],
      "name": "setPresaleMerkleRoot",
      "outputs": [],
      "stateMutability": "nonpayable",
      "type": "function"
    },
    {
      "inputs": [
        {
          "internalType": "uint256",
          "name": "_price_1",
          "type": "uint256"
        }
      ],
      "name": "setPrice_1",
      "outputs": [],
      "stateMutability": "nonpayable",
      "type": "function"
    },
    {
      "inputs": [
        {
          "internalType": "uint256",
          "name": "_price_3",
          "type": "uint256"
        }
      ],
      "name": "setPrice_3",
      "outputs": [],
      "stateMutability": "nonpayable",
      "type": "function"
    },
    {
      "inputs": [
        {
          "internalType": "uint256",
          "name": "_price_6",
          "type": "uint256"
        }
      ],
      "name": "setPrice_6",
      "outputs": [],
      "stateMutability": "nonpayable",
      "type": "function"
    },
    {
      "inputs": [
        {
          "internalType": "bytes4",
          "name": "interfaceId",
          "type": "bytes4"
        }
      ],
      "name": "supportsInterface",
      "outputs": [
        {
          "internalType": "bool",
          "name": "",
          "type": "bool"
        }
      ],
      "stateMutability": "view",
      "type": "function"
    },
    {
      "inputs": [],
      "name": "symbol",
      "outputs": [
        {
          "internalType": "string",
          "name": "",
          "type": "string"
        }
      ],
      "stateMutability": "view",
      "type": "function"
    },
    {
      "inputs": [],
      "name": "togglePresale",
      "outputs": [],
      "stateMutability": "nonpayable",
      "type": "function"
    },
    {
      "inputs": [],
      "name": "togglePublicSale",
      "outputs": [],
      "stateMutability": "nonpayable",
      "type": "function"
    },
    {
      "inputs": [
        {
          "internalType": "uint256",
          "name": "_tokenId",
          "type": "uint256"
        }
      ],
      "name": "tokenURI",
      "outputs": [
        {
          "internalType": "string",
          "name": "",
          "type": "string"
        }
      ],
      "stateMutability": "pure",
      "type": "function"
    },
    {
      "inputs": [
        {
          "internalType": "address",
          "name": "from",
          "type": "address"
        },
        {
          "internalType": "address",
          "name": "to",
          "type": "address"
        },
        {
          "internalType": "uint256",
          "name": "tokenId",
          "type": "uint256"
        }
      ],
      "name": "transferFrom",
      "outputs": [],
      "stateMutability": "nonpayable",
      "type": "function"
    },
    {
      "inputs": [
        {
          "internalType": "address",
          "name": "newOwner",
          "type": "address"
        }
      ],
      "name": "transferOwnership",
      "outputs": [],
      "stateMutability": "nonpayable",
      "type": "function"
    },
    {
      "inputs": [
        {
          "internalType": "address",
          "name": "",
          "type": "address"
        }
      ],
      "name": "userMintCount",
      "outputs": [
        {
          "internalType": "uint256",
          "name": "",
          "type": "uint256"
        }
      ],
      "stateMutability": "view",
      "type": "function"
    },
    {
      "inputs": [],
      "name": "withdraw",
      "outputs": [],
      "stateMutability": "nonpayable",
      "type": "function"
    }
  ],
  "bytecode": "0x60806040526109c4600e556006600f55662386f26fc1000060105566470de4df820000601155666a94d74f4300006012553480156200003d57600080fd5b506040518060400160405280600d81526020017f547261697442617365644e4654000000000000000000000000000000000000008152506040518060400160405280600481526020017f544e4654000000000000000000000000000000000000000000000000000000008152508160009081620000bb919062000801565b508060019081620000cd919062000801565b505050620000f0620000e46200038460201b60201c565b6200038c60201b60201c565b6040518060800160405280605981526020016200502b60599139600c90816200011a919062000801565b50604051806103600160405280600160ff168152602001600260ff168152602001600360ff168152602001600460ff168152602001600560ff168152602001600660ff168152602001600760ff168152602001600860ff168152602001600960ff168152602001600a60ff168152602001600b60ff168152602001600c60ff168152602001600d60ff168152602001600e60ff168152602001600f60ff168152602001601060ff168152602001601160ff168152602001601260ff168152602001601360ff168152602001601460ff168152602001601560ff168152602001601660ff168152602001601760ff168152602001601860ff168152602001601960ff168152602001601a60ff168152602001601b60ff16815250600a90601b6200024592919062000511565b506000600190505b606481116200037d57600981908060018154018082558091505060019003906000526020600020016000909190919091505560198111620002bc57620002b58160076000600181526020019081526020016000206200045260201b62001c721790919060201c565b5062000367565b60328111620002f957620002f28160076000600281526020019081526020016000206200045260201b62001c721790919060201c565b5062000366565b604b811162000336576200032f8160076000600381526020019081526020016000206200045260201b62001c721790919060201c565b5062000365565b620003638160076000600481526020019081526020016000206200045260201b62001c721790919060201c565b505b5b5b8080620003749062000917565b9150506200024d565b5062000964565b600033905090565b6000600660009054906101000a900473ffffffffffffffffffffffffffffffffffffffff16905081600660006101000a81548173ffffffffffffffffffffffffffffffffffffffff021916908373ffffffffffffffffffffffffffffffffffffffff1602179055508173ffffffffffffffffffffffffffffffffffffffff168173ffffffffffffffffffffffffffffffffffffffff167f8be0079c531659141344cd1fd0a4f28419497f9722a3daafe3b4186f6b6457e060405160405180910390a35050565b60006200046c836000018360001b6200047460201b60201c565b905092915050565b6000620004888383620004ee60201b60201c565b620004e3578260000182908060018154018082558091505060019003906000526020600020016000909190919091505582600001805490508360010160008481526020019081526020016000208190555060019050620004e8565b600090505b92915050565b600080836001016000848152602001908152602001600020541415905092915050565b82805482825590600052602060002090810192821562000555579160200282015b8281111562000554578251829060ff1690559160200191906001019062000532565b5b50905062000564919062000568565b5090565b5b808211156200058357600081600090555060010162000569565b5090565b600081519050919050565b7f4e487b7100000000000000000000000000000000000000000000000000000000600052604160045260246000fd5b7f4e487b7100000000000000000000000000000000000000000000000000000000600052602260045260246000fd5b600060028204905060018216806200060957607f821691505b6020821081036200061f576200061e620005c1565b5b50919050565b60008190508160005260206000209050919050565b60006020601f8301049050919050565b600082821b905092915050565b600060088302620006897fffffffffffffffffffffffffffffffffffffffffffffffffffffffffffffffff826200064a565b6200069586836200064a565b95508019841693508086168417925050509392505050565b6000819050919050565b6000819050919050565b6000620006e2620006dc620006d684620006ad565b620006b7565b620006ad565b9050919050565b6000819050919050565b620006fe83620006c1565b620007166200070d82620006e9565b84845462000657565b825550505050565b600090565b6200072d6200071e565b6200073a818484620006f3565b505050565b5b8181101562000762576200075660008262000723565b60018101905062000740565b5050565b601f821115620007b1576200077b8162000625565b62000786846200063a565b8101602085101562000796578190505b620007ae620007a5856200063a565b8301826200073f565b50505b505050565b600082821c905092915050565b6000620007d660001984600802620007b6565b1980831691505092915050565b6000620007f18383620007c3565b9150826002028217905092915050565b6200080c8262000587565b67ffffffffffffffff81111562000828576200082762000592565b5b620008348254620005f0565b6200084182828562000766565b600060209050601f83116001811462000879576000841562000864578287015190505b620008708582620007e3565b865550620008e0565b601f198416620008898662000625565b60005b82811015620008b3578489015182556001820191506020850194506020810190506200088c565b86831015620008d35784890151620008cf601f891682620007c3565b8355505b6001600288020188555050505b505050505050565b7f4e487b7100000000000000000000000000000000000000000000000000000000600052601160045260246000fd5b60006200092482620006ad565b91507fffffffffffffffffffffffffffffffffffffffffffffffffffffffffffffffff8203620009595762000958620008e8565b5b600182019050919050565b6146b780620009746000396000f3fe60806040526004361061021a5760003560e01c8063715018a611610123578063b6250cd0116100ab578063d9db43be1161006f578063d9db43be146107a1578063e222c7f9146107bd578063e985e9c5146107d4578063ee14908d14610811578063f2fde38b1461083c5761021a565b8063b6250cd0146106bc578063b88d4fde146106e5578063bc8893b41461070e578063c87b56dd14610739578063d5abeb01146107765761021a565b80638da5cb5b116100f25780638da5cb5b146105f857806395d89b41146106235780639d7201131461064e578063a22cb4651461066a578063add337e0146106935761021a565b8063715018a6146105505780637501f7411461056757806377f40eba146105925780637ef758d4146105bb5761021a565b806334393743116101a657806353135ca01161017557806353135ca01461046457806357f6687c1461048f5780636352211e146104ab57806366a43d78146104e857806370a08231146105135761021a565b806334393743146103d05780633950891f146103e75780633ccfd60b1461042457806342842e0e1461043b5761021a565b80630adf9acf116101ed5780630adf9acf146102ed5780630fc920961461031857806323b872dd1461035557806328d7b2761461037e57806330176e13146103a75761021a565b806301ffc9a71461021f57806306fdde031461025c578063081812fc14610287578063095ea7b3146102c4575b600080fd5b34801561022b57600080fd5b5061024660048036038101906102419190612e95565b610865565b6040516102539190612edd565b60405180910390f35b34801561026857600080fd5b50610271610947565b60405161027e9190612f88565b60405180910390f35b34801561029357600080fd5b506102ae60048036038101906102a99190612fe0565b6109d9565b6040516102bb919061304e565b60405180910390f35b3480156102d057600080fd5b506102eb60048036038101906102e69190613095565b610a1f565b005b3480156102f957600080fd5b50610302610b36565b60405161030f91906130e4565b60405180910390f35b34801561032457600080fd5b5061033f600480360381019061033a9190613164565b610b3c565b60405161034c9190612edd565b60405180910390f35b34801561036157600080fd5b5061037c600480360381019061037791906131c4565b610bbb565b005b34801561038a57600080fd5b506103a560048036038101906103a0919061324d565b610c1b565b005b3480156103b357600080fd5b506103ce60048036038101906103c991906133aa565b610c2d565b005b3480156103dc57600080fd5b506103e5610c48565b005b3480156103f357600080fd5b5061040e600480360381019061040991906133f3565b610c7c565b60405161041b91906130e4565b60405180910390f35b34801561043057600080fd5b50610439610c94565b005b34801561044757600080fd5b50610462600480360381019061045d91906131c4565b610cee565b005b34801561047057600080fd5b50610479610d0e565b6040516104869190612edd565b60405180910390f35b6104a960048036038101906104a49190613420565b610d21565b005b3480156104b757600080fd5b506104d260048036038101906104cd9190612fe0565b611157565b6040516104df919061304e565b60405180910390f35b3480156104f457600080fd5b506104fd6111dd565b60405161050a91906130e4565b60405180910390f35b34801561051f57600080fd5b5061053a600480360381019061053591906133f3565b6111e3565b60405161054791906130e4565b60405180910390f35b34801561055c57600080fd5b5061056561129a565b005b34801561057357600080fd5b5061057c6112ae565b60405161058991906130e4565b60405180910390f35b34801561059e57600080fd5b506105b960048036038101906105b49190612fe0565b6112b4565b005b3480156105c757600080fd5b506105e260048036038101906105dd9190612fe0565b6112c6565b6040516105ef9190612edd565b60405180910390f35b34801561060457600080fd5b5061060d6112e6565b60405161061a919061304e565b60405180910390f35b34801561062f57600080fd5b50610638611310565b6040516106459190612f88565b60405180910390f35b61066860048036038101906106639190613420565b6113a2565b005b34801561067657600080fd5b50610691600480360381019061068c91906134c0565b611749565b005b34801561069f57600080fd5b506106ba60048036038101906106b59190612fe0565b61175f565b005b3480156106c857600080fd5b506106e360048036038101906106de9190612fe0565b611771565b005b3480156106f157600080fd5b5061070c600480360381019061070791906135a1565b611783565b005b34801561071a57600080fd5b506107236117e5565b6040516107309190612edd565b60405180910390f35b34801561074557600080fd5b50610760600480360381019061075b9190612fe0565b6117f8565b60405161076d9190612f88565b60405180910390f35b34801561078257600080fd5b5061078b611829565b60405161079891906130e4565b60405180910390f35b6107bb60048036038101906107b69190613624565b61182f565b005b3480156107c957600080fd5b506107d2611b21565b005b3480156107e057600080fd5b506107fb60048036038101906107f69190613664565b611b55565b6040516108089190612edd565b60405180910390f35b34801561081d57600080fd5b50610826611be9565b60405161083391906130e4565b60405180910390f35b34801561084857600080fd5b50610863600480360381019061085e91906133f3565b611bef565b005b60007f80ac58cd000000000000000000000000000000000000000000000000000000007bffffffffffffffffffffffffffffffffffffffffffffffffffffffff1916827bffffffffffffffffffffffffffffffffffffffffffffffffffffffff1916148061093057507f5b5e139f000000000000000000000000000000000000000000000000000000007bffffffffffffffffffffffffffffffffffffffffffffffffffffffff1916827bffffffffffffffffffffffffffffffffffffffffffffffffffffffff1916145b80610940575061093f82611c8c565b5b9050919050565b606060008054610956906136d3565b80601f0160208091040260200160405190810160405280929190818152602001828054610982906136d3565b80156109cf5780601f106109a4576101008083540402835291602001916109cf565b820191906000526020600020905b8154815290600101906020018083116109b257829003601f168201915b5050505050905090565b60006109e482611cf6565b6004600083815260200190815260200160002060009054906101000a900473ffffffffffffffffffffffffffffffffffffffff169050919050565b6000610a2a82611157565b90508073ffffffffffffffffffffffffffffffffffffffff168373ffffffffffffffffffffffffffffffffffffffff1603610a9a576040517f08c379a0000000000000000000000000000000000000000000000000000000008152600401610a9190613776565b60405180910390fd5b8073ffffffffffffffffffffffffffffffffffffffff16610ab9611d41565b73ffffffffffffffffffffffffffffffffffffffff161480610ae85750610ae781610ae2611d41565b611b55565b5b610b27576040517f08c379a0000000000000000000000000000000000000000000000000000000008152600401610b1e90613808565b60405180910390fd5b610b318383611d49565b505050565b60115481565b6000610bb2838380806020026020016040519081016040528093929190818152602001838360200280828437600081840152601f19601f8201169050808301925050505050505060145486604051602001610b979190613870565b60405160208183030381529060405280519060200120611e02565b90509392505050565b610bcc610bc6611d41565b82611e19565b610c0b576040517f08c379a0000000000000000000000000000000000000000000000000000000008152600401610c02906138fd565b60405180910390fd5b610c16838383611eae565b505050565b610c236121a7565b8060148190555050565b610c356121a7565b80600c9081610c449190613ac9565b5050565b610c506121a7565b600d60009054906101000a900460ff1615600d60006101000a81548160ff021916908315150217905550565b600b6020528060005260406000206000915090505481565b610c9c6121a7565b60004790504790503373ffffffffffffffffffffffffffffffffffffffff166108fc829081150290604051600060405180830381858888f19350505050158015610cea573d6000803e3d6000fd5b5050565b610d0983838360405180602001604052806000815250611783565b505050565b600d60009054906101000a900460ff1681565b3273ffffffffffffffffffffffffffffffffffffffff163373ffffffffffffffffffffffffffffffffffffffff1614610d86576040517f875fdad700000000000000000000000000000000000000000000000000000000815260040160405180910390fd5b600083118015610d985750600f548311155b610dd7576040517f08c379a0000000000000000000000000000000000000000000000000000000008152600401610dce90613be7565b60405180910390fd5b82610df360076000878152602001908152602001600020612225565b1015610e34576040517f08c379a0000000000000000000000000000000000000000000000000000000008152600401610e2b90613c79565b60405180910390fd5b610ea8828280806020026020016040519081016040528093929190818152602001838360200280828437600081840152601f19601f8201169050808301925050505050505060145433604051602001610e8d9190613870565b60405160208183030381529060405280519060200120611e02565b610ee7576040517f08c379a0000000000000000000000000000000000000000000000000000000008152600401610ede90613ce5565b60405180910390fd5b600d60009054906101000a900460ff16610f2d576040517fe3c26abe00000000000000000000000000000000000000000000000000000000815260040160405180910390fd5b600080600b60003373ffffffffffffffffffffffffffffffffffffffff1673ffffffffffffffffffffffffffffffffffffffff16815260200190815260200160002054905060008103610f84576010549150610fe8565b60018103610f955760009150610fe7565b60028110158015610fa65750600185145b15610fb5576010549150610fe6565b60028110158015610fc7575060038511155b15610fd6576011549150610fe5565b60028110610fe45760125491505b5b5b5b5b8134101561102b576040517f08c379a000000000000000000000000000000000000000000000000000000000815260040161102290613d51565b60405180910390fd5b60005b858110156110f757600061105b611056600760008b8152602001908152602001600020612225565b61223a565b9050600061108482600760008c815260200190815260200160002061227a90919063ffffffff16565b90506110ab81600760008c815260200190815260200160002061229490919063ffffffff16565b506110b633826122ae565b60016008600083815260200190815260200160002060006101000a81548160ff021916908315150217905550505080806110ef90613da0565b91505061102e565b506001600b60003373ffffffffffffffffffffffffffffffffffffffff1673ffffffffffffffffffffffffffffffffffffffff16815260200190815260200160002060008282546111489190613de8565b92505081905550505050505050565b600080611163836124cb565b9050600073ffffffffffffffffffffffffffffffffffffffff168173ffffffffffffffffffffffffffffffffffffffff16036111d4576040517f08c379a00000000000000000000000000000000000000000000000000000000081526004016111cb90613e68565b60405180910390fd5b80915050919050565b60125481565b60008073ffffffffffffffffffffffffffffffffffffffff168273ffffffffffffffffffffffffffffffffffffffff1603611253576040517f08c379a000000000000000000000000000000000000000000000000000000000815260040161124a90613efa565b60405180910390fd5b600360008373ffffffffffffffffffffffffffffffffffffffff1673ffffffffffffffffffffffffffffffffffffffff168152602001908152602001600020549050919050565b6112a26121a7565b6112ac6000612508565b565b600f5481565b6112bc6121a7565b8060118190555050565b60086020528060005260406000206000915054906101000a900460ff1681565b6000600660009054906101000a900473ffffffffffffffffffffffffffffffffffffffff16905090565b60606001805461131f906136d3565b80601f016020809104026020016040519081016040528092919081815260200182805461134b906136d3565b80156113985780601f1061136d57610100808354040283529160200191611398565b820191906000526020600020905b81548152906001019060200180831161137b57829003601f168201915b5050505050905090565b3273ffffffffffffffffffffffffffffffffffffffff163373ffffffffffffffffffffffffffffffffffffffff1614611407576040517f875fdad700000000000000000000000000000000000000000000000000000000815260040160405180910390fd5b6000831180156114195750600f548311155b611458576040517f08c379a000000000000000000000000000000000000000000000000000000000815260040161144f90613be7565b60405180910390fd5b8261147460076000878152602001908152602001600020612225565b10156114b5576040517f08c379a00000000000000000000000000000000000000000000000000000000081526004016114ac90613c79565b60405180910390fd5b611529828280806020026020016040519081016040528093929190818152602001838360200280828437600081840152601f19601f820116905080830192505050505050506014543360405160200161150e9190613870565b60405160208183030381529060405280519060200120611e02565b611568576040517f08c379a000000000000000000000000000000000000000000000000000000000815260040161155f90613ce5565b60405180910390fd5b600d60009054906101000a900460ff166115ae576040517fe3c26abe00000000000000000000000000000000000000000000000000000000815260040160405180910390fd5b6000600184036115c25760105490506115db565b600384116115d45760115490506115da565b60125490505b5b8034101561161e576040517f08c379a000000000000000000000000000000000000000000000000000000000815260040161161590613d51565b60405180910390fd5b60005b848110156116ea57600061164e611649600760008a8152602001908152602001600020612225565b61223a565b9050600061167782600760008b815260200190815260200160002061227a90919063ffffffff16565b905061169e81600760008b815260200190815260200160002061229490919063ffffffff16565b506116a933826122ae565b60016008600083815260200190815260200160002060006101000a81548160ff021916908315150217905550505080806116e290613da0565b915050611621565b506001600b60003373ffffffffffffffffffffffffffffffffffffffff1673ffffffffffffffffffffffffffffffffffffffff168152602001908152602001600020600082825461173b9190613de8565b925050819055505050505050565b61175b611754611d41565b83836125ce565b5050565b6117676121a7565b8060128190555050565b6117796121a7565b8060108190555050565b61179461178e611d41565b83611e19565b6117d3576040517f08c379a00000000000000000000000000000000000000000000000000000000081526004016117ca906138fd565b60405180910390fd5b6117df8484848461273a565b50505050565b600d60019054906101000a900460ff1681565b606061180382612796565b604051602001611813919061403a565b6040516020818303038152906040529050919050565b600e5481565b3273ffffffffffffffffffffffffffffffffffffffff163373ffffffffffffffffffffffffffffffffffffffff1614611894576040517f875fdad700000000000000000000000000000000000000000000000000000000815260040160405180910390fd5b6000811180156118a65750600f548111155b6118e5576040517f08c379a00000000000000000000000000000000000000000000000000000000081526004016118dc90613be7565b60405180910390fd5b8061190160076000858152602001908152602001600020612225565b1015611942576040517f08c379a000000000000000000000000000000000000000000000000000000000815260040161193990613c79565b60405180910390fd5b600d60019054906101000a900460ff16611988576040517fc7d08f0400000000000000000000000000000000000000000000000000000000815260040160405180910390fd5b60006001820361199c5760105490506119b5565b600382116119ae5760115490506119b4565b60125490505b5b803410156119f8576040517f08c379a00000000000000000000000000000000000000000000000000000000081526004016119ef90613d51565b60405180910390fd5b60005b82811015611ac4576000611a28611a2360076000888152602001908152602001600020612225565b61223a565b90506000611a51826007600089815260200190815260200160002061227a90919063ffffffff16565b9050611a78816007600089815260200190815260200160002061229490919063ffffffff16565b50611a8333826122ae565b60016008600083815260200190815260200160002060006101000a81548160ff02191690831515021790555050508080611abc90613da0565b9150506119fb565b506001600b60003373ffffffffffffffffffffffffffffffffffffffff1673ffffffffffffffffffffffffffffffffffffffff1681526020019081526020016000206000828254611b159190613de8565b92505081905550505050565b611b296121a7565b600d60019054906101000a900460ff1615600d60016101000a81548160ff021916908315150217905550565b6000600560008473ffffffffffffffffffffffffffffffffffffffff1673ffffffffffffffffffffffffffffffffffffffff16815260200190815260200160002060008373ffffffffffffffffffffffffffffffffffffffff1673ffffffffffffffffffffffffffffffffffffffff16815260200190815260200160002060009054906101000a900460ff16905092915050565b60105481565b611bf76121a7565b600073ffffffffffffffffffffffffffffffffffffffff168173ffffffffffffffffffffffffffffffffffffffff1603611c66576040517f08c379a0000000000000000000000000000000000000000000000000000000008152600401611c5d906140d9565b60405180910390fd5b611c6f81612508565b50565b6000611c84836000018360001b612864565b905092915050565b60007f01ffc9a7000000000000000000000000000000000000000000000000000000007bffffffffffffffffffffffffffffffffffffffffffffffffffffffff1916827bffffffffffffffffffffffffffffffffffffffffffffffffffffffff1916149050919050565b611cff816128d4565b611d3e576040517f08c379a0000000000000000000000000000000000000000000000000000000008152600401611d3590613e68565b60405180910390fd5b50565b600033905090565b816004600083815260200190815260200160002060006101000a81548173ffffffffffffffffffffffffffffffffffffffff021916908373ffffffffffffffffffffffffffffffffffffffff160217905550808273ffffffffffffffffffffffffffffffffffffffff16611dbc83611157565b73ffffffffffffffffffffffffffffffffffffffff167f8c5be1e5ebec7d5bd14f71427d1e84f3dd0314c0f7b2291e5b200ac8c7c3b92560405160405180910390a45050565b600082611e0f8584612915565b1490509392505050565b600080611e2583611157565b90508073ffffffffffffffffffffffffffffffffffffffff168473ffffffffffffffffffffffffffffffffffffffff161480611e675750611e668185611b55565b5b80611ea557508373ffffffffffffffffffffffffffffffffffffffff16611e8d846109d9565b73ffffffffffffffffffffffffffffffffffffffff16145b91505092915050565b8273ffffffffffffffffffffffffffffffffffffffff16611ece82611157565b73ffffffffffffffffffffffffffffffffffffffff1614611f24576040517f08c379a0000000000000000000000000000000000000000000000000000000008152600401611f1b9061416b565b60405180910390fd5b600073ffffffffffffffffffffffffffffffffffffffff168273ffffffffffffffffffffffffffffffffffffffff1603611f93576040517f08c379a0000000000000000000000000000000000000000000000000000000008152600401611f8a906141fd565b60405180910390fd5b611fa0838383600161296b565b8273ffffffffffffffffffffffffffffffffffffffff16611fc082611157565b73ffffffffffffffffffffffffffffffffffffffff1614612016576040517f08c379a000000000000000000000000000000000000000000000000000000000815260040161200d9061416b565b60405180910390fd5b6004600082815260200190815260200160002060006101000a81549073ffffffffffffffffffffffffffffffffffffffff02191690556001600360008573ffffffffffffffffffffffffffffffffffffffff1673ffffffffffffffffffffffffffffffffffffffff168152602001908152602001600020600082825403925050819055506001600360008473ffffffffffffffffffffffffffffffffffffffff1673ffffffffffffffffffffffffffffffffffffffff16815260200190815260200160002060008282540192505081905550816002600083815260200190815260200160002060006101000a81548173ffffffffffffffffffffffffffffffffffffffff021916908373ffffffffffffffffffffffffffffffffffffffff160217905550808273ffffffffffffffffffffffffffffffffffffffff168473ffffffffffffffffffffffffffffffffffffffff167fddf252ad1be2c89b69c2b068fc378daa952ba7f163c4a11628f55a4df523b3ef60405160405180910390a46121a28383836001612971565b505050565b6121af611d41565b73ffffffffffffffffffffffffffffffffffffffff166121cd6112e6565b73ffffffffffffffffffffffffffffffffffffffff1614612223576040517f08c379a000000000000000000000000000000000000000000000000000000000815260040161221a90614269565b60405180910390fd5b565b600061223382600001612977565b9050919050565b60008142336040516020016122509291906142aa565b6040516020818303038152906040528051906020012060001c6122739190614305565b9050919050565b60006122898360000183612988565b60001c905092915050565b60006122a6836000018360001b6129b3565b905092915050565b600073ffffffffffffffffffffffffffffffffffffffff168273ffffffffffffffffffffffffffffffffffffffff160361231d576040517f08c379a000000000000000000000000000000000000000000000000000000000815260040161231490614382565b60405180910390fd5b612326816128d4565b15612366576040517f08c379a000000000000000000000000000000000000000000000000000000000815260040161235d906143ee565b60405180910390fd5b61237460008383600161296b565b61237d816128d4565b156123bd576040517f08c379a00000000000000000000000000000000000000000000000000000000081526004016123b4906143ee565b60405180910390fd5b6001600360008473ffffffffffffffffffffffffffffffffffffffff1673ffffffffffffffffffffffffffffffffffffffff16815260200190815260200160002060008282540192505081905550816002600083815260200190815260200160002060006101000a81548173ffffffffffffffffffffffffffffffffffffffff021916908373ffffffffffffffffffffffffffffffffffffffff160217905550808273ffffffffffffffffffffffffffffffffffffffff16600073ffffffffffffffffffffffffffffffffffffffff167fddf252ad1be2c89b69c2b068fc378daa952ba7f163c4a11628f55a4df523b3ef60405160405180910390a46124c7600083836001612971565b5050565b60006002600083815260200190815260200160002060009054906101000a900473ffffffffffffffffffffffffffffffffffffffff169050919050565b6000600660009054906101000a900473ffffffffffffffffffffffffffffffffffffffff16905081600660006101000a81548173ffffffffffffffffffffffffffffffffffffffff021916908373ffffffffffffffffffffffffffffffffffffffff1602179055508173ffffffffffffffffffffffffffffffffffffffff168173ffffffffffffffffffffffffffffffffffffffff167f8be0079c531659141344cd1fd0a4f28419497f9722a3daafe3b4186f6b6457e060405160405180910390a35050565b8173ffffffffffffffffffffffffffffffffffffffff168373ffffffffffffffffffffffffffffffffffffffff160361263c576040517f08c379a00000000000000000000000000000000000000000000000000000000081526004016126339061445a565b60405180910390fd5b80600560008573ffffffffffffffffffffffffffffffffffffffff1673ffffffffffffffffffffffffffffffffffffffff16815260200190815260200160002060008473ffffffffffffffffffffffffffffffffffffffff1673ffffffffffffffffffffffffffffffffffffffff16815260200190815260200160002060006101000a81548160ff0219169083151502179055508173ffffffffffffffffffffffffffffffffffffffff168373ffffffffffffffffffffffffffffffffffffffff167f17307eab39ab6107e8899845ad3d59bd9653f200f220920489ca2b5937696c318360405161272d9190612edd565b60405180910390a3505050565b612745848484611eae565b61275184848484612ac7565b612790576040517f08c379a0000000000000000000000000000000000000000000000000000000008152600401612787906144ec565b60405180910390fd5b50505050565b6060600060016127a584612c4e565b01905060008167ffffffffffffffff8111156127c4576127c361327f565b5b6040519080825280601f01601f1916602001820160405280156127f65781602001600182028036833780820191505090505b509050600082602001820190505b600115612859578080600190039150507f3031323334353637383961626364656600000000000000000000000000000000600a86061a8153600a858161284d5761284c6142d6565b5b04945060008503612804575b819350505050919050565b60006128708383612da1565b6128c95782600001829080600181540180825580915050600190039060005260206000200160009091909190915055826000018054905083600101600084815260200190815260200160002081905550600190506128ce565b600090505b92915050565b60008073ffffffffffffffffffffffffffffffffffffffff166128f6836124cb565b73ffffffffffffffffffffffffffffffffffffffff1614159050919050565b60008082905060005b84518110156129605761294b8286838151811061293e5761293d61450c565b5b6020026020010151612dc4565b9150808061295890613da0565b91505061291e565b508091505092915050565b50505050565b50505050565b600081600001805490509050919050565b60008260000182815481106129a05761299f61450c565b5b9060005260206000200154905092915050565b60008083600101600084815260200190815260200160002054905060008114612abb5760006001826129e5919061453b565b90506000600186600001805490506129fd919061453b565b9050818114612a6c576000866000018281548110612a1e57612a1d61450c565b5b9060005260206000200154905080876000018481548110612a4257612a4161450c565b5b90600052602060002001819055508387600101600083815260200190815260200160002081905550505b85600001805480612a8057612a7f61456f565b5b600190038181906000526020600020016000905590558560010160008681526020019081526020016000206000905560019350505050612ac1565b60009150505b92915050565b6000612ae88473ffffffffffffffffffffffffffffffffffffffff16612def565b15612c41578373ffffffffffffffffffffffffffffffffffffffff1663150b7a02612b11611d41565b8786866040518563ffffffff1660e01b8152600401612b3394939291906145f3565b6020604051808303816000875af1925050508015612b6f57506040513d601f19601f82011682018060405250810190612b6c9190614654565b60015b612bf1573d8060008114612b9f576040519150601f19603f3d011682016040523d82523d6000602084013e612ba4565b606091505b506000815103612be9576040517f08c379a0000000000000000000000000000000000000000000000000000000008152600401612be0906144ec565b60405180910390fd5b805181602001fd5b63150b7a0260e01b7bffffffffffffffffffffffffffffffffffffffffffffffffffffffff1916817bffffffffffffffffffffffffffffffffffffffffffffffffffffffff191614915050612c46565b600190505b949350505050565b600080600090507a184f03e93ff9f4daa797ed6e38ed64bf6a1f0100000000000000008310612cac577a184f03e93ff9f4daa797ed6e38ed64bf6a1f0100000000000000008381612ca257612ca16142d6565b5b0492506040810190505b6d04ee2d6d415b85acef81000000008310612ce9576d04ee2d6d415b85acef81000000008381612cdf57612cde6142d6565b5b0492506020810190505b662386f26fc100008310612d1857662386f26fc100008381612d0e57612d0d6142d6565b5b0492506010810190505b6305f5e1008310612d41576305f5e1008381612d3757612d366142d6565b5b0492506008810190505b6127108310612d66576127108381612d5c57612d5b6142d6565b5b0492506004810190505b60648310612d895760648381612d7f57612d7e6142d6565b5b0492506002810190505b600a8310612d98576001810190505b80915050919050565b600080836001016000848152602001908152602001600020541415905092915050565b6000818310612ddc57612dd78284612e12565b612de7565b612de68383612e12565b5b905092915050565b6000808273ffffffffffffffffffffffffffffffffffffffff163b119050919050565b600082600052816020526040600020905092915050565b6000604051905090565b600080fd5b600080fd5b60007fffffffff0000000000000000000000000000000000000000000000000000000082169050919050565b612e7281612e3d565b8114612e7d57600080fd5b50565b600081359050612e8f81612e69565b92915050565b600060208284031215612eab57612eaa612e33565b5b6000612eb984828501612e80565b91505092915050565b60008115159050919050565b612ed781612ec2565b82525050565b6000602082019050612ef26000830184612ece565b92915050565b600081519050919050565b600082825260208201905092915050565b60005b83811015612f32578082015181840152602081019050612f17565b60008484015250505050565b6000601f19601f8301169050919050565b6000612f5a82612ef8565b612f648185612f03565b9350612f74818560208601612f14565b612f7d81612f3e565b840191505092915050565b60006020820190508181036000830152612fa28184612f4f565b905092915050565b6000819050919050565b612fbd81612faa565b8114612fc857600080fd5b50565b600081359050612fda81612fb4565b92915050565b600060208284031215612ff657612ff5612e33565b5b600061300484828501612fcb565b91505092915050565b600073ffffffffffffffffffffffffffffffffffffffff82169050919050565b60006130388261300d565b9050919050565b6130488161302d565b82525050565b6000602082019050613063600083018461303f565b92915050565b6130728161302d565b811461307d57600080fd5b50565b60008135905061308f81613069565b92915050565b600080604083850312156130ac576130ab612e33565b5b60006130ba85828601613080565b92505060206130cb85828601612fcb565b9150509250929050565b6130de81612faa565b82525050565b60006020820190506130f960008301846130d5565b92915050565b600080fd5b600080fd5b600080fd5b60008083601f840112613124576131236130ff565b5b8235905067ffffffffffffffff81111561314157613140613104565b5b60208301915083602082028301111561315d5761315c613109565b5b9250929050565b60008060006040848603121561317d5761317c612e33565b5b600061318b86828701613080565b935050602084013567ffffffffffffffff8111156131ac576131ab612e38565b5b6131b88682870161310e565b92509250509250925092565b6000806000606084860312156131dd576131dc612e33565b5b60006131eb86828701613080565b93505060206131fc86828701613080565b925050604061320d86828701612fcb565b9150509250925092565b6000819050919050565b61322a81613217565b811461323557600080fd5b50565b60008135905061324781613221565b92915050565b60006020828403121561326357613262612e33565b5b600061327184828501613238565b91505092915050565b600080fd5b7f4e487b7100000000000000000000000000000000000000000000000000000000600052604160045260246000fd5b6132b782612f3e565b810181811067ffffffffffffffff821117156132d6576132d561327f565b5b80604052505050565b60006132e9612e29565b90506132f582826132ae565b919050565b600067ffffffffffffffff8211156133155761331461327f565b5b61331e82612f3e565b9050602081019050919050565b82818337600083830152505050565b600061334d613348846132fa565b6132df565b9050828152602081018484840111156133695761336861327a565b5b61337484828561332b565b509392505050565b600082601f830112613391576133906130ff565b5b81356133a184826020860161333a565b91505092915050565b6000602082840312156133c0576133bf612e33565b5b600082013567ffffffffffffffff8111156133de576133dd612e38565b5b6133ea8482850161337c565b91505092915050565b60006020828403121561340957613408612e33565b5b600061341784828501613080565b91505092915050565b6000806000806060858703121561343a57613439612e33565b5b600061344887828801612fcb565b945050602061345987828801612fcb565b935050604085013567ffffffffffffffff81111561347a57613479612e38565b5b6134868782880161310e565b925092505092959194509250565b61349d81612ec2565b81146134a857600080fd5b50565b6000813590506134ba81613494565b92915050565b600080604083850312156134d7576134d6612e33565b5b60006134e585828601613080565b92505060206134f6858286016134ab565b9150509250929050565b600067ffffffffffffffff82111561351b5761351a61327f565b5b61352482612f3e565b9050602081019050919050565b600061354461353f84613500565b6132df565b9050828152602081018484840111156135605761355f61327a565b5b61356b84828561332b565b509392505050565b600082601f830112613588576135876130ff565b5b8135613598848260208601613531565b91505092915050565b600080600080608085870312156135bb576135ba612e33565b5b60006135c987828801613080565b94505060206135da87828801613080565b93505060406135eb87828801612fcb565b925050606085013567ffffffffffffffff81111561360c5761360b612e38565b5b61361887828801613573565b91505092959194509250565b6000806040838503121561363b5761363a612e33565b5b600061364985828601612fcb565b925050602061365a85828601612fcb565b9150509250929050565b6000806040838503121561367b5761367a612e33565b5b600061368985828601613080565b925050602061369a85828601613080565b9150509250929050565b7f4e487b7100000000000000000000000000000000000000000000000000000000600052602260045260246000fd5b600060028204905060018216806136eb57607f821691505b6020821081036136fe576136fd6136a4565b5b50919050565b7f4552433732313a20617070726f76616c20746f2063757272656e74206f776e6560008201527f7200000000000000000000000000000000000000000000000000000000000000602082015250565b6000613760602183612f03565b915061376b82613704565b604082019050919050565b6000602082019050818103600083015261378f81613753565b9050919050565b7f4552433732313a20617070726f76652063616c6c6572206973206e6f7420746f60008201527f6b656e206f776e6572206f7220617070726f76656420666f7220616c6c000000602082015250565b60006137f2603d83612f03565b91506137fd82613796565b604082019050919050565b60006020820190508181036000830152613821816137e5565b9050919050565b60008160601b9050919050565b600061384082613828565b9050919050565b600061385282613835565b9050919050565b61386a6138658261302d565b613847565b82525050565b600061387c8284613859565b60148201915081905092915050565b7f4552433732313a2063616c6c6572206973206e6f7420746f6b656e206f776e6560008201527f72206f7220617070726f76656400000000000000000000000000000000000000602082015250565b60006138e7602d83612f03565b91506138f28261388b565b604082019050919050565b60006020820190508181036000830152613916816138da565b9050919050565b60008190508160005260206000209050919050565b60006020601f8301049050919050565b600082821b905092915050565b60006008830261397f7fffffffffffffffffffffffffffffffffffffffffffffffffffffffffffffffff82613942565b6139898683613942565b95508019841693508086168417925050509392505050565b6000819050919050565b60006139c66139c16139bc84612faa565b6139a1565b612faa565b9050919050565b6000819050919050565b6139e0836139ab565b6139f46139ec826139cd565b84845461394f565b825550505050565b600090565b613a096139fc565b613a148184846139d7565b505050565b5b81811015613a3857613a2d600082613a01565b600181019050613a1a565b5050565b601f821115613a7d57613a4e8161391d565b613a5784613932565b81016020851015613a66578190505b613a7a613a7285613932565b830182613a19565b50505b505050565b600082821c905092915050565b6000613aa060001984600802613a82565b1980831691505092915050565b6000613ab98383613a8f565b9150826002028217905092915050565b613ad282612ef8565b67ffffffffffffffff811115613aeb57613aea61327f565b5b613af582546136d3565b613b00828285613a3c565b600060209050601f831160018114613b335760008415613b21578287015190505b613b2b8582613aad565b865550613b93565b601f198416613b418661391d565b60005b82811015613b6957848901518255600182019150602085019450602081019050613b44565b86831015613b865784890151613b82601f891682613a8f565b8355505b6001600288020188555050505b505050505050565b7f496e76616c6964207175616e7469747900000000000000000000000000000000600082015250565b6000613bd1601083612f03565b9150613bdc82613b9b565b602082019050919050565b60006020820190508181036000830152613c0081613bc4565b9050919050565b7f4e6f7420656e6f75676820746f6b656e7320776974682074686973207472616960008201527f74206c6566740000000000000000000000000000000000000000000000000000602082015250565b6000613c63602683612f03565b9150613c6e82613c07565b604082019050919050565b60006020820190508181036000830152613c9281613c56565b9050919050565b7f4e6f74206f6e207468652077686974656c697374000000000000000000000000600082015250565b6000613ccf601483612f03565b9150613cda82613c99565b602082019050919050565b60006020820190508181036000830152613cfe81613cc2565b9050919050565b7f496e73756666696369656e742045544800000000000000000000000000000000600082015250565b6000613d3b601083612f03565b9150613d4682613d05565b602082019050919050565b60006020820190508181036000830152613d6a81613d2e565b9050919050565b7f4e487b7100000000000000000000000000000000000000000000000000000000600052601160045260246000fd5b6000613dab82612faa565b91507fffffffffffffffffffffffffffffffffffffffffffffffffffffffffffffffff8203613ddd57613ddc613d71565b5b600182019050919050565b6000613df382612faa565b9150613dfe83612faa565b9250828201905080821115613e1657613e15613d71565b5b92915050565b7f4552433732313a20696e76616c696420746f6b656e2049440000000000000000600082015250565b6000613e52601883612f03565b9150613e5d82613e1c565b602082019050919050565b60006020820190508181036000830152613e8181613e45565b9050919050565b7f4552433732313a2061646472657373207a65726f206973206e6f74206120766160008201527f6c6964206f776e65720000000000000000000000000000000000000000000000602082015250565b6000613ee4602983612f03565b9150613eef82613e88565b604082019050919050565b60006020820190508181036000830152613f1381613ed7565b9050919050565b600081905092915050565b7f68747470733a2f2f6e667473746f726167652e6c696e6b2f697066732f62616660008201527f79626569656d7772766d71346d786d7a7976357978357534746872646d78717660208201527f7a6832717a636364346f36736d347a69746b3471716e66752f00000000000000604082015250565b6000613fa7605983613f1a565b9150613fb282613f25565b605982019050919050565b6000613fc882612ef8565b613fd28185613f1a565b9350613fe2818560208601612f14565b80840191505092915050565b7f2e6a736f6e000000000000000000000000000000000000000000000000000000600082015250565b6000614024600583613f1a565b915061402f82613fee565b600582019050919050565b600061404582613f9a565b91506140518284613fbd565b915061405c82614017565b915081905092915050565b7f4f776e61626c653a206e6577206f776e657220697320746865207a65726f206160008201527f6464726573730000000000000000000000000000000000000000000000000000602082015250565b60006140c3602683612f03565b91506140ce82614067565b604082019050919050565b600060208201905081810360008301526140f2816140b6565b9050919050565b7f4552433732313a207472616e736665722066726f6d20696e636f72726563742060008201527f6f776e6572000000000000000000000000000000000000000000000000000000602082015250565b6000614155602583612f03565b9150614160826140f9565b604082019050919050565b6000602082019050818103600083015261418481614148565b9050919050565b7f4552433732313a207472616e7366657220746f20746865207a65726f2061646460008201527f7265737300000000000000000000000000000000000000000000000000000000602082015250565b60006141e7602483612f03565b91506141f28261418b565b604082019050919050565b60006020820190508181036000830152614216816141da565b9050919050565b7f4f776e61626c653a2063616c6c6572206973206e6f7420746865206f776e6572600082015250565b6000614253602083612f03565b915061425e8261421d565b602082019050919050565b6000602082019050818103600083015261428281614246565b9050919050565b6000819050919050565b6142a461429f82612faa565b614289565b82525050565b60006142b68285614293565b6020820191506142c68284613859565b6014820191508190509392505050565b7f4e487b7100000000000000000000000000000000000000000000000000000000600052601260045260246000fd5b600061431082612faa565b915061431b83612faa565b92508261432b5761432a6142d6565b5b828206905092915050565b7f4552433732313a206d696e7420746f20746865207a65726f2061646472657373600082015250565b600061436c602083612f03565b915061437782614336565b602082019050919050565b6000602082019050818103600083015261439b8161435f565b9050919050565b7f4552433732313a20746f6b656e20616c7265616479206d696e74656400000000600082015250565b60006143d8601c83612f03565b91506143e3826143a2565b602082019050919050565b60006020820190508181036000830152614407816143cb565b9050919050565b7f4552433732313a20617070726f766520746f2063616c6c657200000000000000600082015250565b6000614444601983612f03565b915061444f8261440e565b602082019050919050565b6000602082019050818103600083015261447381614437565b9050919050565b7f4552433732313a207472616e7366657220746f206e6f6e20455243373231526560008201527f63656976657220696d706c656d656e7465720000000000000000000000000000602082015250565b60006144d6603283612f03565b91506144e18261447a565b604082019050919050565b60006020820190508181036000830152614505816144c9565b9050919050565b7f4e487b7100000000000000000000000000000000000000000000000000000000600052603260045260246000fd5b600061454682612faa565b915061455183612faa565b925082820390508181111561456957614568613d71565b5b92915050565b7f4e487b7100000000000000000000000000000000000000000000000000000000600052603160045260246000fd5b600081519050919050565b600082825260208201905092915050565b60006145c58261459e565b6145cf81856145a9565b93506145df818560208601612f14565b6145e881612f3e565b840191505092915050565b6000608082019050614608600083018761303f565b614615602083018661303f565b61462260408301856130d5565b818103606083015261463481846145ba565b905095945050505050565b60008151905061464e81612e69565b92915050565b60006020828403121561466a57614669612e33565b5b60006146788482850161463f565b9150509291505056fea26469706673582212207a887fecac658cdedbed9ec433a61d9eaa376c8c90dc2d4e7354bdedb9e5e43d64736f6c6343000811003368747470733a2f2f6e667473746f726167652e6c696e6b2f697066732f62616679626569656d7772766d71346d786d7a7976357978357534746872646d7871767a6832717a636364346f36736d347a69746b3471716e66752f",
  "linkReferences": {},
  "deployedLinkReferences": {}
}